:03000000020A25CC
:0C0A2500787FE4F6D8FD75811A020A6C97
:0A0B1500C0F9A4B0999282F8809014
:0C0B080001170001182D011A3B011917FC
:03001B00020AB125
:100AB100C0E0C0D0758D3C758BB00517E517B41437
:100AC100217517000518E518B43C17051A751800AB
:100AD100E51AB43C050519751A00E519B418037532
:070AE1001900D0D0D0E03273
:0A094B008F088C098D0A8A0B8B0CB3
:10095500780D7C007D007BFF7A0B79157E007F0A80
:100965001208D07590FF75B0FF75A0EFE50875F01A
:100975000A84240DF8E6F590E4FF0FBF64FC75903A
:10098500FF75B0FF75A0DFE50875F00A84740D25C5
:10099500F0F8E6F590E4FF0FBF64FC7590FF75B0C5
:1009A500FF75A0FEAE0BAF0C7C007D0A1208F67435
:1009B5000D2FF8E6F590E4FF0FBF64FC7590FF7509
:1009C500B0FF75A0FDAE0BAF0C7C007D0A1208F6DA
:1009D500740D2DF8E6F590E4FF0FBF64FC7590FFEC
:1009E50075B0FF75A0FBAE09AF0A7C007D0A120841
:1009F500F6740D2FF8E6F590E4FF0FBF64FC7590D3
:100A0500FF75B0FF75A0F7AE09AF0A7C007D0A122D
:0F0A150008F6740D2DF8E6F590E4FF0FBF64FCB2
:010A240022AF
:100AE800758910758D3C758BB0D2ABD2AFD28EE5BF
:100AF8001AFD7C00E519FB7A00AF1812094B80EF4C
:100A3100020AE8E493A3F8E493A34003F68001F2E9
:100A410008DFF48029E493A3F85407240CC8C333C6
:100A5100C4540F4420C8834004F456800146F6DF95
:100A6100E4800B0102040810204080900B08E47E12
:100A7100019360BCA3FF543F30E509541FFEE4938A
:100A8100A360010ECF54C025E060A840B8E493A351
:100A9100FAE493A3F8E493A3C8C582C8CAC583CA7C
:100AA100F0A3C8C582C8CAC583CADFE9DEE780BE34
:010B140000E0
:10080000E709F608DFFA8046E709F208DFFA803EDA
:1008100088828C83E709F0A3DFFA8032E309F608C7
:10082000DFFA8078E309F208DFFA807088828C832F
:10083000E309F0A3DFFA806489828A83E0A3F608E3
:10084000DFFA805889828A83E0A3F208DFFA804CBD
:1008500080D280FA80C680D4806980F28033801094
:1008600080A680EA809A80A880DA80E280CA8033FD
:1008700089828A83ECFAE493A3C8C582C8CCC58375
:10088000CCF0A3C8C582C8CCC583CCDFE9DEE78045
:100890000D89828A83E493A3F608DFF9ECFAA9F0C4
:1008A000EDFB2289828A83ECFAE0A3C8C582C8CC1A
:1008B000C583CCF0A3C8C582C8CCC583CCDFEADE33
:1008C000E880DB89828A83E493A3F208DFF980CC95
:1008D00088F0EF60010E4E60C388F0ED2402B4048E
:1008E0000050B9F582EB2402B4040050AF23234535
:0608F00082239008507302
:1008F600BC000BBE0029EF8DF084FFADF022E4CCE6
:10090600F875F008EF2FFFEE33FEEC33FCEE9DECAE
:10091600984005FCEE9DFE0FD5F0E9E4CEFD22EDF4
:10092600F8F5F0EE8420D21CFEADF075F008EF2F3E
:10093600FFED33FD4007985006D5F0F222C398FD2F
:050946000FD5F0EA22CC
:00000001FF
