:030000000208D023
:0C08D000787FE4F6D8FD75811C02091742
:10099F000F08C0F9A4B09982F880908883C6A18609
:0109AF008EB9
:10080000751CFF7580FF7580F085801BE51B64F00B
:1008100070030208CD7F057E00120989E51B64F094
:1008200070030208CD7580FE85801BE51B24826065
:100830001B24C0601224E0600924F07012751C3083
:10084000800D751C318008751C328003751C337552
:1008500080FD85801BE51B2483601B24C06012245F
:10086000E0600924F07012751C34800D751C358011
:1008700008751C368003751C377580FB85801BE569
:100880001B2485601B24C0601224E0600924F070E2
:1008900012751C38800D751C398008751C41800349
:1008A000751C427580F785801BE51B2489601B241D
:1008B000C0601224E0600924F07012751C43800DA2
:0F08C000751C448008751C458003751C46AF1CD1
:0108CF002206
:10098900EF1FAA0670011E4A600BE4FDEDC39472C5
:0509990050EE0D80F797
:01099E002236
:10095C00120800BFFF0280F8E51A14600C14600B3B
:10096C00146011240370E98002800074D82FF8E61B
:0D097C00F5A080DC74D82FF8E6F5A080D33C
:1008DC0002095CE493A3F8E493A34003F68001F2CD
:1008EC0008DFF48029E493A3F85407240CC8C3331D
:1008FC00C4540F4420C8834004F456800146F6DFEC
:10090C00E4800B010204081020408090099FE47ED3
:10091C00019360BCA3FF543F30E509541FFEE493E0
:10092C00A360010ECF54C025E060A840B8E493A3A7
:10093C00FAE493A3F8E493A3C8C582C8CAC583CAD2
:10094C00F0A3C8C582C8CAC583CADFE9DEE780BE8A
:0109B0000046
:00000001FF
