:03000000020800F3
:0C080000787FE4F6D8FD758110020847EF
:0A08F1000808FEFDFBF7EFDFBF7FF4
:0808D300EBF4F5A07F2C7E017F
:1008DB00EF1FAA0670011E4A600BE4FDEDC3947D69
:0508EB0050EE0D80F746
:0108F00022E5
:10088C0075A0FF20803C7F0A7E001208DB0510203B
:10089C008014E51030E00F7B01E4FC1208D3EB254B
:1008AC00E0FB0CBC08F52080DAE51020E0D57B805D
:1008BC00E4FCECC3940850CB1208D3EBC313FB0C31
:0708CC0080F0E4F5A080BC00
:10080C0002088CE493A3F8E493A34003F68001F26E
:10081C0008DFF48029E493A3F85407240CC8C333ED
:10082C00C4540F4420C8834004F456800146F6DFBC
:10083C00E4800B01020408102040809008F1E47E53
:10084C00019360BCA3FF543F30E509541FFEE493B1
:10085C00A360010ECF54C025E060A840B8E493A378
:10086C00FAE493A3F8E493A3C8C582C8CAC583CAA3
:10087C00F0A3C8C582C8CAC583CADFE9DEE780BE5B
:0108FB0000FC
:00000001FF
