:03000000020C519E
:0C0C5100787FE4F6D8FD758124020B5E6C
:100C210031323334414200C0F9A4B0999282F88044
:0A0C3100908883C6A1868EBF8C86D2
:080C0300F8E6F5A07FE87E038E
:100C0B00EF1FAA0670011E4A600BE4FDEDC3947240
:050C1B0050EE0D80F712
:010C200022B1
:100B5E00E4F50878097C00FD7BFF7A0C7928FE7F8E
:100B6E00101208D078197C007D007BFF7A0C793842
:100B7E007E007F031208D0E4F5248519A07580FF4E
:100B8E00120A91AC07BCFF0280F6E508146014143B
:100B9E006015146016146017146020240570E18C23
:100BAE001E800E8C1F800A8C2080068C2180028C69
:100BBE0022050874D92C120C0380C58C230508AFAE
:100BCE000474D92F120C03781E7C007D007BFF7AF3
:100BDE000C7921120A74EF7009851AA07FF47E0138
:100BEE008007851BA07FE87E03120C0B8519A0E4FD
:050BFE00F508020B8E5A
:100A9100751DFF7580F085801CE51C64F0700302F4
:100AA1000B5B7F057E00120C3BE51C64F0700302BA
:100AB1000B5B7580FE85801CE51C2482601B24C0B5
:100AC100601224E0600924F07012751D30800D75EC
:100AD1001D318008751D328003751D337580FD85BC
:100AE100801CE51C2483601B24C0601224E0600983
:100AF10024F07012751D34800D751D358008751D2B
:100B0100368003751D377580FB85801CE51C2485A7
:100B1100601B24C0601224E0600924F07012751D6E
:100B210038800D751D398008751D418003751D4282
:100B31007580F785801CE51C2489601B24C0601228
:100B410024E0600924F07012751D43800D751D4469
:0C0B51008008751D458003751D46AF1D12
:010B5D002275
:100C3B00EF1FAA0670011E4A600BE4FDEDC3947210
:050C4B0050EE0D80F7E2
:010C50002281
:10080000E709F608DFFA8046E709F208DFFA803EDA
:1008100088828C83E709F0A3DFFA8032E309F608C7
:10082000DFFA8078E309F208DFFA807088828C832F
:10083000E309F0A3DFFA806489828A83E0A3F608E3
:10084000DFFA805889828A83E0A3F208DFFA804CBD
:1008500080D280FA80C680D4806980F28033801094
:1008600080A680EA809A80A880DA80E280CA8033FD
:1008700089828A83ECFAE493A3C8C582C8CCC58375
:10088000CCF0A3C8C582C8CCC583CCDFE9DEE78045
:100890000D89828A83E493A3F608DFF9ECFAA9F0C4
:1008A000EDFB2289828A83ECFAE0A3C8C582C8CC1A
:1008B000C583CCF0A3C8C582C8CCC583CCDFEADE33
:1008C000E880DB89828A83E493A3F208DFF980CC95
:1008D00088F0EF60010E4E60C388F0ED2402B4048E
:1008E0000050B9F582EB2402B4040050AF23234535
:0608F00082239008507302
:1008F600E3F5F009E208B5F06D606B80F3E3F5F01F
:1009060009E608B5F060605E80F387F009E608B591
:10091600F054605280F487F009E208B5F04860466A
:1009260080F488828C8387F009E0A3B5F0386036BE
:1009360080F488828C8387F009E493A3B5F027605E
:100946002580F388828C83E3F5F009E0A3B5F016E1
:10095600601480F388828C83E3F5F009E493A3B5F1
:10096600F004600280F2020A21808580E7808E8092
:10097600D2803C8015806C807E809B80B5808B8089
:10098600A1804F8070803A020A2D89828A83ECFA10
:10099600E493F5F0A3C8C582C8CCC583CCE493A381
:1009A600C8C582C8CCC583CCB5F070606E80E189BD
:1009B600828A83E493F5F0A3E208B5F05E605C807A
:1009C600F289828A83E0F5F0A3E608B5F04D604B24
:1009D60080F389828A83E0F5F0A3E208B5F03C60F3
:1009E6003A80F389828A83E493F5F0A3E608B5F0AA
:1009F6002A602880F2805389828A83ECFAE493F590
:100A0600F0A3C8C582C8CCC583CCE0A3C8C582C83C
:100A1600CCC583CCB5F004600280E27FFFB5F0025E
:100A26000F2240027F012289828A83ECFAE0F5F0E8
:100A3600A3C8C582C8CCC583CCE0A3C8C582C8CC30
:100A4600C583CCB5F0D560D380E389828A83ECFA7E
:100A5600E0F5F0A3C8C582C8CCC583CCE493A3C88F
:100A6600C582C8CCC583CCB5F0B160AF80E288F052
:100A7600ED2402B4040050A3F582EB2402B4040072
:0B0A86005099232345822390096F73D1
:00000001FF
