:03000000020800F3
:0C080000787FE4F6D8FD758115020847EA
:0A096C00C0F9A4B0999282F88090BF
:0E095D00060A00000000000001080001090069
:060919008B108A11891207
:10091F00E4FFAB10AA11A9128F827583001208ECA5
:0C092F00600AF5993099FDC2990F80E62E
:01093B002299
:10088C007FFEE4FE7590FF8FA07801EF08800123B6
:10089C00D8FDFF740A2EF8E690093C93F590E4FD20
:1008AC00FC0DBD00010CBC02F8BD58F50EBE06D403
:0108BC002219
:10093C00E4F513758920D2AFD2AC758BFD758DFDA6
:10094C00759840D29CD28EE509B401FB12088C80BC
:01095C00F6A4
:030023000208BD13
:0B08BD00C0E0C0D075D000C000C00734
:1008C800309818C298AF99740A2508F8A607E50861
:0B08D800C39406400675090175080076
:0908E300D007D000D0D0D0E032E3
:10080C0002093CE493A3F8E493A34003F68001F2BD
:10081C0008DFF48029E493A3F85407240CC8C333ED
:10082C00C4540F4420C8834004F456800146F6DFBC
:10083C00E4800B010204081020408090095DE47EE6
:10084C00019360BCA3FF543F30E509541FFEE493B1
:10085C00A360010ECF54C025E060A840B8E493A378
:10086C00FAE493A3F8E493A3C8C582C8CAC583CAA3
:10087C00F0A3C8C582C8CAC583CADFE9DEE780BE5B
:01096B00008B
:1008EC00BB010CE58229F582E5833AF583E02250C1
:1008FC0006E92582F8E622BBFE06E92582F8E2220B
:0D090C00E58229F582E5833AF583E4932224
:00000001FF
