:0300000002095A98
:0C095A00787FE4F6D8FD758123020800C8
:1008000074FF750BFEF50AF509F508E4F50FF50E12
:10081000F50DF50CF513F512F511F510F517F516A4
:10082000F515F514E4751714F516F515F514F50B13
:10083000F50AF509F508F513F512F511F510AF17DE
:10084000AE16AD15AC14AB13AA12A911A810C312A1
:10085000091C50D07F147E007D007C0012088CAFF4
:100860000BAE0AAD09AC0812090F8F0B8E0A8D0969
:100870008C08120940E5132401F513E43512F51232
:0C088000E43511F511E43510F51080B2DC
:100940008F1B8E1A8D198C18E48FA0FFE51AFEE418
:0A095000FDFC780812092D8F8022AB
:08088C008F1B8E1A8D198C18C8
:10089400E4F51FF51EF51DF51CF523F522F521F5EC
:1008A40020F51FF51EF51DF51CAF1BAE1AAD19ACD6
:1008B40018AB1FAA1EA91DA81CC312091C504BE487
:1008C400F523F522F521F520E47F7BFEFDFCAB2327
:1008D400AA22A921A820C312091C5017E523240128
:1008E400F523E43522F522E43521F521E43520F51C
:1008F4002080D5E51F2401F51FE4351EF51EE435DF
:0A0904001DF51DE4351CF51C809F55
:01090E0022C6
:0D090F00CFF4CFCEF4CECDF4CDCCF4CC227D
:10091C00EB9FF5F0EA9E42F0E99D42F0E89C45F031
:01092C0022A8
:10092D00E8600FECC313FCED13FDEE13FEEF13FFA8
:03093D00D8F122CC
:00000001FF
