:0300000002088D66
:0C088D00787FE4F6D8FD7581110208D4D4
:0A0937000808FEFDFBF7EFDFBF7FAD
:08091900EBF4F5807F2C7E0158
:10092100EF1FAA0670011E4A600BE4FDEDC3947D22
:0509310050EE0D80F7FF
:01093600229E
:100800007580FF75A0FF2090377F0A7E00120921B6
:100810000510209014E51030E00F7B01E4FC120974
:1008200019EB25E0FB0CBC08F5209014E51020E046
:100830000F7B80E4FC120919EBC313FB0CBC08F519
:100840002090447F0A7E001209210511209018E5AE
:100850001130E0137B01E4FCEBF4F5A012091DEB71
:1008600025E0FB0CBC08F120909CE51120E0977B73
:1008700080E4FCECC39408508DEBF4F5A012091D44
:0D088000EBC313FB0C80ECE4F590020806BE
:10089900020800E493A3F8E493A34003F68001F26D
:1008A90008DFF48029E493A3F85407240CC8C33360
:1008B900C4540F4420C8834004F456800146F6DF2F
:1008C900E4800B0102040810204080900937E47E7F
:1008D900019360BCA3FF543F30E509541FFEE49324
:1008E900A360010ECF54C025E060A840B8E493A3EB
:1008F900FAE493A3F8E493A3C8C582C8CAC583CA16
:10090900F0A3C8C582C8CAC583CADFE9DEE780BECD
:0109410000B5
:00000001FF
