:030000000208F6FD
:0C08F600787FE4F6D8FD75811402093DFE
:0A0A0300C0F9A4B0999282F8809027
:060A0D00011400011300BA
:03001B000209CA0D
:1009CA00C0E0C0D0758D3C758BB00514E514B41425
:1009DA000D7514000513E513B46403751300D0D024
:0309EA00D0E03228
:020982008F08DC
:1009840078097C007D007BFF7A0A79037E007F0A68
:100994001208D07590FF75A0FEE50875F00A84244E
:1009A40009F8E6F590E4FF0FBF64FC7590FF75A0AD
:1009B400FDE50875F00A84740925F0F8E6F590E47D
:0509C400FF0FBF64FC01
:0109C900220B
:1009ED00758910758D3C758BB0D2ABD2AFD28EAFF1
:0609FD001312098280F9CB
:100902000209EDE493A3F8E493A34003F68001F215
:1009120008DFF48029E493A3F85407240CC8C333F6
:10092200C4540F4420C8834004F456800146F6DFC5
:10093200E4800B0102040810204080900A0DE47E3E
:10094200019360BCA3FF543F30E509541FFEE493BA
:10095200A360010ECF54C025E060A840B8E493A381
:10096200FAE493A3F8E493A3C8C582C8CAC583CAAC
:10097200F0A3C8C582C8CAC583CADFE9DEE780BE64
:010A130000E2
:10080000E709F608DFFA8046E709F208DFFA803EDA
:1008100088828C83E709F0A3DFFA8032E309F608C7
:10082000DFFA8078E309F208DFFA807088828C832F
:10083000E309F0A3DFFA806489828A83E0A3F608E3
:10084000DFFA805889828A83E0A3F208DFFA804CBD
:1008500080D280FA80C680D4806980F28033801094
:1008600080A680EA809A80A880DA80E280CA8033FD
:1008700089828A83ECFAE493A3C8C582C8CCC58375
:10088000CCF0A3C8C582C8CCC583CCDFE9DEE78045
:100890000D89828A83E493A3F608DFF9ECFAA9F0C4
:1008A000EDFB2289828A83ECFAE0A3C8C582C8CC1A
:1008B000C583CCF0A3C8C582C8CCC583CCDFEADE33
:1008C000E880DB89828A83E493A3F208DFF980CC95
:1008D00088F0EF60010E4E60C388F0ED2402B4048E
:1008E0000050B9F582EB2402B4040050AF23234535
:0608F00082239008507302
:00000001FF
