:03000000020800F3
:0C080000787FE4F6D8FD758111020847EE
:0B090F000908C0F9A4B09992F880908C
:030003000208E907
:1008E900C0E0C0D00511E511B46403751100D0D082
:0308F900D0E0321A
:030013000208FCE4
:1008FC00C0E0C0D01511E511B46403751100D0D05F
:03090C00D0E03206
:0808B700F8E6F5907F057E00D4
:1008BF00EF1FAA0670011E4A600BE4FDEDC3947D85
:0508CF0050EE0D80F762
:0108D4002201
:10088C00AC0775A0FEEC75F00A8424081208B77545
:10089C0090FF75A0FDEC75F00A84740825F0120821
:0B08AC00B77590FF7F057E000208BFBB
:1008D500D2AFD2A8D2AAD288D28AE4F511AF11122A
:0408E500088C80F902
:10080C000208D5E493A3F8E493A34003F68001F225
:10081C0008DFF48029E493A3F85407240CC8C333ED
:10082C00C4540F4420C8834004F456800146F6DFBC
:10083C00E4800B010204081020408090090FE47E34
:10084C00019360BCA3FF543F30E509541FFEE493B1
:10085C00A360010ECF54C025E060A840B8E493A378
:10086C00FAE493A3F8E493A3C8C582C8CAC583CAA3
:10087C00F0A3C8C582C8CAC583CADFE9DEE780BE5B
:01091A0000DC
:00000001FF
