:030000000208F5FE
:0C08F500787FE4F6D8FD75810B02080046
:10087B0075A0FB12089C75A0F312089C75A0FB12C7
:10088B00089C75A0F312089C75A0FB12089C75A020
:01089B00F369
:10089C00E4F508758D3C758DB0D28E308FFDC28F0E
:0808AC000508E508B40AEC227E
:1008E400E4F509E509C39F500712089C050980F344
:0108F40022E1
:10080000D2AFD2A8D2AAD288D28A75A0F37F3212F0
:1008100008E412087B12087B75A0EB7F1E1208E427
:1008200075A0DE7F321208E475A0DF12089C75A067
:10083000DE12089C75A0DF12089C75A0DE12089CD1
:1008400075A0DF12089C75A0DE12089C75A0DF124F
:10085000089C75A0DE12089C75A0DF12089C75A08C
:10086000DE12089C75A0DF12089C75A0DE12089CA1
:0B08700075A0DD7F1E1208E402080ADC
:030003000208B43C
:1008B400C0E0C0D075D000C00775A0DB7FC81208A7
:0808C400E4D007D0D0D0E032EF
:030013000208CC14
:1008CC00C0E0C0D075D000C00775A0F77F641208D7
:0808DC00E4D007D0D0D0E032D7
:00000001FF
